{
  "contractName": "Governance",
  "abi": [
    {
      "inputs": [
        {
          "internalType": "contract IVotes",
          "name": "_token",
          "type": "address"
        },
        {
          "internalType": "contract TimelockController",
          "name": "_timelock",
          "type": "address"
        }
      ],
      "stateMutability": "nonpayable",
      "type": "constructor"
    },
    {
      "inputs": [],
      "name": "Empty",
      "type": "error"
    },
    {
      "anonymous": false,
      "inputs": [
        {
          "indexed": false,
          "internalType": "uint256",
          "name": "proposalId",
          "type": "uint256"
        }
      ],
      "name": "ProposalCanceled",
      "type": "event"
    },
    {
      "anonymous": false,
      "inputs": [
        {
          "indexed": false,
          "internalType": "uint256",
          "name": "proposalId",
          "type": "uint256"
        },
        {
          "indexed": false,
          "internalType": "address",
          "name": "proposer",
          "type": "address"
        },
        {
          "indexed": false,
          "internalType": "address[]",
          "name": "targets",
          "type": "address[]"
        },
        {
          "indexed": false,
          "internalType": "uint256[]",
          "name": "values",
          "type": "uint256[]"
        },
        {
          "indexed": false,
          "internalType": "string[]",
          "name": "signatures",
          "type": "string[]"
        },
        {
          "indexed": false,
          "internalType": "bytes[]",
          "name": "calldatas",
          "type": "bytes[]"
        },
        {
          "indexed": false,
          "internalType": "uint256",
          "name": "startBlock",
          "type": "uint256"
        },
        {
          "indexed": false,
          "internalType": "uint256",
          "name": "endBlock",
          "type": "uint256"
        },
        {
          "indexed": false,
          "internalType": "string",
          "name": "description",
          "type": "string"
        }
      ],
      "name": "ProposalCreated",
      "type": "event"
    },
    {
      "anonymous": false,
      "inputs": [
        {
          "indexed": false,
          "internalType": "uint256",
          "name": "proposalId",
          "type": "uint256"
        }
      ],
      "name": "ProposalExecuted",
      "type": "event"
    },
    {
      "anonymous": false,
      "inputs": [
        {
          "indexed": false,
          "internalType": "uint256",
          "name": "proposalId",
          "type": "uint256"
        },
        {
          "indexed": false,
          "internalType": "uint256",
          "name": "eta",
          "type": "uint256"
        }
      ],
      "name": "ProposalQueued",
      "type": "event"
    },
    {
      "anonymous": false,
      "inputs": [
        {
          "indexed": false,
          "internalType": "uint256",
          "name": "oldProposalThreshold",
          "type": "uint256"
        },
        {
          "indexed": false,
          "internalType": "uint256",
          "name": "newProposalThreshold",
          "type": "uint256"
        }
      ],
      "name": "ProposalThresholdSet",
      "type": "event"
    },
    {
      "anonymous": false,
      "inputs": [
        {
          "indexed": false,
          "internalType": "uint256",
          "name": "oldQuorumNumerator",
          "type": "uint256"
        },
        {
          "indexed": false,
          "internalType": "uint256",
          "name": "newQuorumNumerator",
          "type": "uint256"
        }
      ],
      "name": "QuorumNumeratorUpdated",
      "type": "event"
    },
    {
      "anonymous": false,
      "inputs": [
        {
          "indexed": false,
          "internalType": "address",
          "name": "oldTimelock",
          "type": "address"
        },
        {
          "indexed": false,
          "internalType": "address",
          "name": "newTimelock",
          "type": "address"
        }
      ],
      "name": "TimelockChange",
      "type": "event"
    },
    {
      "anonymous": false,
      "inputs": [
        {
          "indexed": true,
          "internalType": "address",
          "name": "voter",
          "type": "address"
        },
        {
          "indexed": false,
          "internalType": "uint256",
          "name": "proposalId",
          "type": "uint256"
        },
        {
          "indexed": false,
          "internalType": "uint8",
          "name": "support",
          "type": "uint8"
        },
        {
          "indexed": false,
          "internalType": "uint256",
          "name": "weight",
          "type": "uint256"
        },
        {
          "indexed": false,
          "internalType": "string",
          "name": "reason",
          "type": "string"
        }
      ],
      "name": "VoteCast",
      "type": "event"
    },
    {
      "anonymous": false,
      "inputs": [
        {
          "indexed": true,
          "internalType": "address",
          "name": "voter",
          "type": "address"
        },
        {
          "indexed": false,
          "internalType": "uint256",
          "name": "proposalId",
          "type": "uint256"
        },
        {
          "indexed": false,
          "internalType": "uint8",
          "name": "support",
          "type": "uint8"
        },
        {
          "indexed": false,
          "internalType": "uint256",
          "name": "weight",
          "type": "uint256"
        },
        {
          "indexed": false,
          "internalType": "string",
          "name": "reason",
          "type": "string"
        },
        {
          "indexed": false,
          "internalType": "bytes",
          "name": "params",
          "type": "bytes"
        }
      ],
      "name": "VoteCastWithParams",
      "type": "event"
    },
    {
      "anonymous": false,
      "inputs": [
        {
          "indexed": false,
          "internalType": "uint256",
          "name": "oldVotingDelay",
          "type": "uint256"
        },
        {
          "indexed": false,
          "internalType": "uint256",
          "name": "newVotingDelay",
          "type": "uint256"
        }
      ],
      "name": "VotingDelaySet",
      "type": "event"
    },
    {
      "anonymous": false,
      "inputs": [
        {
          "indexed": false,
          "internalType": "uint256",
          "name": "oldVotingPeriod",
          "type": "uint256"
        },
        {
          "indexed": false,
          "internalType": "uint256",
          "name": "newVotingPeriod",
          "type": "uint256"
        }
      ],
      "name": "VotingPeriodSet",
      "type": "event"
    },
    {
      "inputs": [],
      "name": "BALLOT_TYPEHASH",
      "outputs": [
        {
          "internalType": "bytes32",
          "name": "",
          "type": "bytes32"
        }
      ],
      "stateMutability": "view",
      "type": "function"
    },
    {
      "inputs": [],
      "name": "COUNTING_MODE",
      "outputs": [
        {
          "internalType": "string",
          "name": "",
          "type": "string"
        }
      ],
      "stateMutability": "pure",
      "type": "function"
    },
    {
      "inputs": [],
      "name": "EXTENDED_BALLOT_TYPEHASH",
      "outputs": [
        {
          "internalType": "bytes32",
          "name": "",
          "type": "bytes32"
        }
      ],
      "stateMutability": "view",
      "type": "function"
    },
    {
      "inputs": [
        {
          "internalType": "uint256",
          "name": "proposalId",
          "type": "uint256"
        },
        {
          "internalType": "uint8",
          "name": "support",
          "type": "uint8"
        }
      ],
      "name": "castVote",
      "outputs": [
        {
          "internalType": "uint256",
          "name": "",
          "type": "uint256"
        }
      ],
      "stateMutability": "nonpayable",
      "type": "function"
    },
    {
      "inputs": [
        {
          "internalType": "uint256",
          "name": "proposalId",
          "type": "uint256"
        },
        {
          "internalType": "uint8",
          "name": "support",
          "type": "uint8"
        },
        {
          "internalType": "uint8",
          "name": "v",
          "type": "uint8"
        },
        {
          "internalType": "bytes32",
          "name": "r",
          "type": "bytes32"
        },
        {
          "internalType": "bytes32",
          "name": "s",
          "type": "bytes32"
        }
      ],
      "name": "castVoteBySig",
      "outputs": [
        {
          "internalType": "uint256",
          "name": "",
          "type": "uint256"
        }
      ],
      "stateMutability": "nonpayable",
      "type": "function"
    },
    {
      "inputs": [
        {
          "internalType": "uint256",
          "name": "proposalId",
          "type": "uint256"
        },
        {
          "internalType": "uint8",
          "name": "support",
          "type": "uint8"
        },
        {
          "internalType": "string",
          "name": "reason",
          "type": "string"
        }
      ],
      "name": "castVoteWithReason",
      "outputs": [
        {
          "internalType": "uint256",
          "name": "",
          "type": "uint256"
        }
      ],
      "stateMutability": "nonpayable",
      "type": "function"
    },
    {
      "inputs": [
        {
          "internalType": "uint256",
          "name": "proposalId",
          "type": "uint256"
        },
        {
          "internalType": "uint8",
          "name": "support",
          "type": "uint8"
        },
        {
          "internalType": "string",
          "name": "reason",
          "type": "string"
        },
        {
          "internalType": "bytes",
          "name": "params",
          "type": "bytes"
        }
      ],
      "name": "castVoteWithReasonAndParams",
      "outputs": [
        {
          "internalType": "uint256",
          "name": "",
          "type": "uint256"
        }
      ],
      "stateMutability": "nonpayable",
      "type": "function"
    },
    {
      "inputs": [
        {
          "internalType": "uint256",
          "name": "proposalId",
          "type": "uint256"
        },
        {
          "internalType": "uint8",
          "name": "support",
          "type": "uint8"
        },
        {
          "internalType": "string",
          "name": "reason",
          "type": "string"
        },
        {
          "internalType": "bytes",
          "name": "params",
          "type": "bytes"
        },
        {
          "internalType": "uint8",
          "name": "v",
          "type": "uint8"
        },
        {
          "internalType": "bytes32",
          "name": "r",
          "type": "bytes32"
        },
        {
          "internalType": "bytes32",
          "name": "s",
          "type": "bytes32"
        }
      ],
      "name": "castVoteWithReasonAndParamsBySig",
      "outputs": [
        {
          "internalType": "uint256",
          "name": "",
          "type": "uint256"
        }
      ],
      "stateMutability": "nonpayable",
      "type": "function"
    },
    {
      "inputs": [
        {
          "internalType": "address[]",
          "name": "targets",
          "type": "address[]"
        },
        {
          "internalType": "uint256[]",
          "name": "values",
          "type": "uint256[]"
        },
        {
          "internalType": "bytes[]",
          "name": "calldatas",
          "type": "bytes[]"
        },
        {
          "internalType": "bytes32",
          "name": "descriptionHash",
          "type": "bytes32"
        }
      ],
      "name": "execute",
      "outputs": [
        {
          "internalType": "uint256",
          "name": "",
          "type": "uint256"
        }
      ],
      "stateMutability": "payable",
      "type": "function"
    },
    {
      "inputs": [
        {
          "internalType": "address",
          "name": "account",
          "type": "address"
        },
        {
          "internalType": "uint256",
          "name": "blockNumber",
          "type": "uint256"
        }
      ],
      "name": "getVotes",
      "outputs": [
        {
          "internalType": "uint256",
          "name": "",
          "type": "uint256"
        }
      ],
      "stateMutability": "view",
      "type": "function"
    },
    {
      "inputs": [
        {
          "internalType": "address",
          "name": "account",
          "type": "address"
        },
        {
          "internalType": "uint256",
          "name": "blockNumber",
          "type": "uint256"
        },
        {
          "internalType": "bytes",
          "name": "params",
          "type": "bytes"
        }
      ],
      "name": "getVotesWithParams",
      "outputs": [
        {
          "internalType": "uint256",
          "name": "",
          "type": "uint256"
        }
      ],
      "stateMutability": "view",
      "type": "function"
    },
    {
      "inputs": [
        {
          "internalType": "uint256",
          "name": "proposalId",
          "type": "uint256"
        },
        {
          "internalType": "address",
          "name": "account",
          "type": "address"
        }
      ],
      "name": "hasVoted",
      "outputs": [
        {
          "internalType": "bool",
          "name": "",
          "type": "bool"
        }
      ],
      "stateMutability": "view",
      "type": "function"
    },
    {
      "inputs": [
        {
          "internalType": "address[]",
          "name": "targets",
          "type": "address[]"
        },
        {
          "internalType": "uint256[]",
          "name": "values",
          "type": "uint256[]"
        },
        {
          "internalType": "bytes[]",
          "name": "calldatas",
          "type": "bytes[]"
        },
        {
          "internalType": "bytes32",
          "name": "descriptionHash",
          "type": "bytes32"
        }
      ],
      "name": "hashProposal",
      "outputs": [
        {
          "internalType": "uint256",
          "name": "",
          "type": "uint256"
        }
      ],
      "stateMutability": "pure",
      "type": "function"
    },
    {
      "inputs": [],
      "name": "name",
      "outputs": [
        {
          "internalType": "string",
          "name": "",
          "type": "string"
        }
      ],
      "stateMutability": "view",
      "type": "function"
    },
    {
      "inputs": [
        {
          "internalType": "address",
          "name": "",
          "type": "address"
        },
        {
          "internalType": "address",
          "name": "",
          "type": "address"
        },
        {
          "internalType": "uint256[]",
          "name": "",
          "type": "uint256[]"
        },
        {
          "internalType": "uint256[]",
          "name": "",
          "type": "uint256[]"
        },
        {
          "internalType": "bytes",
          "name": "",
          "type": "bytes"
        }
      ],
      "name": "onERC1155BatchReceived",
      "outputs": [
        {
          "internalType": "bytes4",
          "name": "",
          "type": "bytes4"
        }
      ],
      "stateMutability": "nonpayable",
      "type": "function"
    },
    {
      "inputs": [
        {
          "internalType": "address",
          "name": "",
          "type": "address"
        },
        {
          "internalType": "address",
          "name": "",
          "type": "address"
        },
        {
          "internalType": "uint256",
          "name": "",
          "type": "uint256"
        },
        {
          "internalType": "uint256",
          "name": "",
          "type": "uint256"
        },
        {
          "internalType": "bytes",
          "name": "",
          "type": "bytes"
        }
      ],
      "name": "onERC1155Received",
      "outputs": [
        {
          "internalType": "bytes4",
          "name": "",
          "type": "bytes4"
        }
      ],
      "stateMutability": "nonpayable",
      "type": "function"
    },
    {
      "inputs": [
        {
          "internalType": "address",
          "name": "",
          "type": "address"
        },
        {
          "internalType": "address",
          "name": "",
          "type": "address"
        },
        {
          "internalType": "uint256",
          "name": "",
          "type": "uint256"
        },
        {
          "internalType": "bytes",
          "name": "",
          "type": "bytes"
        }
      ],
      "name": "onERC721Received",
      "outputs": [
        {
          "internalType": "bytes4",
          "name": "",
          "type": "bytes4"
        }
      ],
      "stateMutability": "nonpayable",
      "type": "function"
    },
    {
      "inputs": [
        {
          "internalType": "uint256",
          "name": "proposalId",
          "type": "uint256"
        }
      ],
      "name": "proposalDeadline",
      "outputs": [
        {
          "internalType": "uint256",
          "name": "",
          "type": "uint256"
        }
      ],
      "stateMutability": "view",
      "type": "function"
    },
    {
      "inputs": [
        {
          "internalType": "uint256",
          "name": "proposalId",
          "type": "uint256"
        }
      ],
      "name": "proposalEta",
      "outputs": [
        {
          "internalType": "uint256",
          "name": "",
          "type": "uint256"
        }
      ],
      "stateMutability": "view",
      "type": "function"
    },
    {
      "inputs": [
        {
          "internalType": "uint256",
          "name": "proposalId",
          "type": "uint256"
        }
      ],
      "name": "proposalSnapshot",
      "outputs": [
        {
          "internalType": "uint256",
          "name": "",
          "type": "uint256"
        }
      ],
      "stateMutability": "view",
      "type": "function"
    },
    {
      "inputs": [
        {
          "internalType": "uint256",
          "name": "proposalId",
          "type": "uint256"
        }
      ],
      "name": "proposalVotes",
      "outputs": [
        {
          "internalType": "uint256",
          "name": "againstVotes",
          "type": "uint256"
        },
        {
          "internalType": "uint256",
          "name": "forVotes",
          "type": "uint256"
        },
        {
          "internalType": "uint256",
          "name": "abstainVotes",
          "type": "uint256"
        }
      ],
      "stateMutability": "view",
      "type": "function"
    },
    {
      "inputs": [
        {
          "internalType": "address[]",
          "name": "targets",
          "type": "address[]"
        },
        {
          "internalType": "uint256[]",
          "name": "values",
          "type": "uint256[]"
        },
        {
          "internalType": "bytes[]",
          "name": "calldatas",
          "type": "bytes[]"
        },
        {
          "internalType": "bytes32",
          "name": "descriptionHash",
          "type": "bytes32"
        }
      ],
      "name": "queue",
      "outputs": [
        {
          "internalType": "uint256",
          "name": "",
          "type": "uint256"
        }
      ],
      "stateMutability": "nonpayable",
      "type": "function"
    },
    {
      "inputs": [],
      "name": "quorumDenominator",
      "outputs": [
        {
          "internalType": "uint256",
          "name": "",
          "type": "uint256"
        }
      ],
      "stateMutability": "view",
      "type": "function"
    },
    {
      "inputs": [],
      "name": "quorumNumerator",
      "outputs": [
        {
          "internalType": "uint256",
          "name": "",
          "type": "uint256"
        }
      ],
      "stateMutability": "view",
      "type": "function"
    },
    {
      "inputs": [
        {
          "internalType": "address",
          "name": "target",
          "type": "address"
        },
        {
          "internalType": "uint256",
          "name": "value",
          "type": "uint256"
        },
        {
          "internalType": "bytes",
          "name": "data",
          "type": "bytes"
        }
      ],
      "name": "relay",
      "outputs": [],
      "stateMutability": "nonpayable",
      "type": "function"
    },
    {
      "inputs": [
        {
          "internalType": "uint256",
          "name": "newProposalThreshold",
          "type": "uint256"
        }
      ],
      "name": "setProposalThreshold",
      "outputs": [],
      "stateMutability": "nonpayable",
      "type": "function"
    },
    {
      "inputs": [
        {
          "internalType": "uint256",
          "name": "newVotingDelay",
          "type": "uint256"
        }
      ],
      "name": "setVotingDelay",
      "outputs": [],
      "stateMutability": "nonpayable",
      "type": "function"
    },
    {
      "inputs": [
        {
          "internalType": "uint256",
          "name": "newVotingPeriod",
          "type": "uint256"
        }
      ],
      "name": "setVotingPeriod",
      "outputs": [],
      "stateMutability": "nonpayable",
      "type": "function"
    },
    {
      "inputs": [],
      "name": "timelock",
      "outputs": [
        {
          "internalType": "address",
          "name": "",
          "type": "address"
        }
      ],
      "stateMutability": "view",
      "type": "function"
    },
    {
      "inputs": [],
      "name": "token",
      "outputs": [
        {
          "internalType": "contract IVotes",
          "name": "",
          "type": "address"
        }
      ],
      "stateMutability": "view",
      "type": "function"
    },
    {
      "inputs": [
        {
          "internalType": "uint256",
          "name": "newQuorumNumerator",
          "type": "uint256"
        }
      ],
      "name": "updateQuorumNumerator",
      "outputs": [],
      "stateMutability": "nonpayable",
      "type": "function"
    },
    {
      "inputs": [
        {
          "internalType": "contract TimelockController",
          "name": "newTimelock",
          "type": "address"
        }
      ],
      "name": "updateTimelock",
      "outputs": [],
      "stateMutability": "nonpayable",
      "type": "function"
    },
    {
      "inputs": [],
      "name": "version",
      "outputs": [
        {
          "internalType": "string",
          "name": "",
          "type": "string"
        }
      ],
      "stateMutability": "view",
      "type": "function"
    },
    {
      "stateMutability": "payable",
      "type": "receive"
    },
    {
      "inputs": [],
      "name": "votingDelay",
      "outputs": [
        {
          "internalType": "uint256",
          "name": "",
          "type": "uint256"
        }
      ],
      "stateMutability": "view",
      "type": "function"
    },
    {
      "inputs": [],
      "name": "votingPeriod",
      "outputs": [
        {
          "internalType": "uint256",
          "name": "",
          "type": "uint256"
        }
      ],
      "stateMutability": "view",
      "type": "function"
    },
    {
      "inputs": [
        {
          "internalType": "uint256",
          "name": "blockNumber",
          "type": "uint256"
        }
      ],
      "name": "quorum",
      "outputs": [
        {
          "internalType": "uint256",
          "name": "",
          "type": "uint256"
        }
      ],
      "stateMutability": "view",
      "type": "function"
    },
    {
      "inputs": [
        {
          "internalType": "uint256",
          "name": "proposalId",
          "type": "uint256"
        }
      ],
      "name": "state",
      "outputs": [
        {
          "internalType": "enum IGovernor.ProposalState",
          "name": "",
          "type": "uint8"
        }
      ],
      "stateMutability": "view",
      "type": "function"
    },
    {
      "inputs": [
        {
          "internalType": "address[]",
          "name": "targets",
          "type": "address[]"
        },
        {
          "internalType": "uint256[]",
          "name": "values",
          "type": "uint256[]"
        },
        {
          "internalType": "bytes[]",
          "name": "calldatas",
          "type": "bytes[]"
        },
        {
          "internalType": "string",
          "name": "description",
          "type": "string"
        }
      ],
      "name": "propose",
      "outputs": [
        {
          "internalType": "uint256",
          "name": "",
          "type": "uint256"
        }
      ],
      "stateMutability": "nonpayable",
      "type": "function"
    },
    {
      "inputs": [],
      "name": "proposalThreshold",
      "outputs": [
        {
          "internalType": "uint256",
          "name": "",
          "type": "uint256"
        }
      ],
      "stateMutability": "view",
      "type": "function"
    },
    {
      "inputs": [
        {
          "internalType": "bytes4",
          "name": "interfaceId",
          "type": "bytes4"
        }
      ],
      "name": "supportsInterface",
      "outputs": [
        {
          "internalType": "bool",
          "name": "",
          "type": "bool"
        }
      ],
      "stateMutability": "view",
      "type": "function"
    }
  ],
  "bytecode": "0x6101606040523480156200001257600080fd5b5060405162006b8e38038062006b8e833981810160405281019062000038919062000655565b80600483600161b2fa60006040518060400160405280600a81526020017f4d79476f7665726e6f7200000000000000000000000000000000000000000000815250806200008a620001ee60201b60201c565b60008280519060200120905060008280519060200120905060007f8b73c3c69bb8fe3d512ecc4cf759cc79239f7b179b0ffacaa9a75d522b39400f90508260e081815250508161010081815250504660a08181525050620000f38184846200022b60201b60201c565b608081815250503073ffffffffffffffffffffffffffffffffffffffff1660c08173ffffffffffffffffffffffffffffffffffffffff16815250508061012081815250505050505050806000908051906020019062000154929190620004ce565b505062000167836200026760201b60201c565b6200017882620002ae60201b60201c565b62000189816200033b60201b60201c565b5050508073ffffffffffffffffffffffffffffffffffffffff166101408173ffffffffffffffffffffffffffffffffffffffff168152505050620001d3816200038260201b60201c565b50620001e5816200042460201b60201c565b50505062000965565b60606040518060400160405280600181526020017f3100000000000000000000000000000000000000000000000000000000000000815250905090565b6000838383463060405160200162000248959493929190620006e3565b6040516020818303038152906040528051906020012090509392505050565b7fc565b045403dc03c2eea82b81a0465edad9e2e7fc4d97e11421c209da93d7a93600454826040516200029c92919062000740565b60405180910390a18060048190555050565b60008111620002f4576040517f08c379a0000000000000000000000000000000000000000000000000000000008152600401620002eb90620007f4565b60405180910390fd5b7f7e3f7f0708a84de9203036abaa450dccc85ad5ff52f78c170f3edb55cf5e8828600554826040516200032992919062000740565b60405180910390a18060058190555050565b7fccb45da8d5717e6c4544694297c4ba5cf151d455c9bb0ed4fc7a38411bc05461600654826040516200037092919062000740565b60405180910390a18060068190555050565b62000392620004c560201b60201c565b811115620003d7576040517f08c379a0000000000000000000000000000000000000000000000000000000008152600401620003ce90620008b2565b60405180910390fd5b60006008549050816008819055507f0553476bf02ef2726e8ce5ced78d63e26e602e4a2257b1f559418e24b463399781836040516200041892919062000740565b60405180910390a15050565b7f08f74ea46ef7894f65eabfb5e6e695de773a000b47c529ab559178069b226401600960009054906101000a900473ffffffffffffffffffffffffffffffffffffffff168260405162000479929190620008d4565b60405180910390a180600960006101000a81548173ffffffffffffffffffffffffffffffffffffffff021916908373ffffffffffffffffffffffffffffffffffffffff16021790555050565b60006064905090565b828054620004dc9062000930565b90600052602060002090601f0160209004810192826200050057600085556200054c565b82601f106200051b57805160ff19168380011785556200054c565b828001600101855582156200054c579182015b828111156200054b5782518255916020019190600101906200052e565b5b5090506200055b91906200055f565b5090565b5b808211156200057a57600081600090555060010162000560565b5090565b600080fd5b600073ffffffffffffffffffffffffffffffffffffffff82169050919050565b6000620005b08262000583565b9050919050565b6000620005c482620005a3565b9050919050565b620005d681620005b7565b8114620005e257600080fd5b50565b600081519050620005f681620005cb565b92915050565b6000620006098262000583565b9050919050565b60006200061d82620005fc565b9050919050565b6200062f8162000610565b81146200063b57600080fd5b50565b6000815190506200064f8162000624565b92915050565b600080604083850312156200066f576200066e6200057e565b5b60006200067f85828601620005e5565b925050602062000692858286016200063e565b9150509250929050565b6000819050919050565b620006b1816200069c565b82525050565b6000819050919050565b620006cc81620006b7565b82525050565b620006dd81620005a3565b82525050565b600060a082019050620006fa6000830188620006a6565b620007096020830187620006a6565b620007186040830186620006a6565b620007276060830185620006c1565b620007366080830184620006d2565b9695505050505050565b6000604082019050620007576000830185620006c1565b620007666020830184620006c1565b9392505050565b600082825260208201905092915050565b7f476f7665726e6f7253657474696e67733a20766f74696e6720706572696f642060008201527f746f6f206c6f7700000000000000000000000000000000000000000000000000602082015250565b6000620007dc6027836200076d565b9150620007e9826200077e565b604082019050919050565b600060208201905081810360008301526200080f81620007cd565b9050919050565b7f476f7665726e6f72566f74657351756f72756d4672616374696f6e3a2071756f60008201527f72756d4e756d657261746f72206f7665722071756f72756d44656e6f6d696e6160208201527f746f720000000000000000000000000000000000000000000000000000000000604082015250565b60006200089a6043836200076d565b9150620008a78262000816565b606082019050919050565b60006020820190508181036000830152620008cd816200088b565b9050919050565b6000604082019050620008eb6000830185620006d2565b620008fa6020830184620006d2565b9392505050565b7f4e487b7100000000000000000000000000000000000000000000000000000000600052602260045260246000fd5b600060028204905060018216806200094957607f821691505b6020821081036200095f576200095e62000901565b5b50919050565b60805160a05160c05160e0516101005161012051610140516161c0620009ce60003960008181611c590152818161275d01526129d001526000612c9601526000612cd801526000612cb701526000612bec01526000612c4201526000612c6b01526161c06000f3fe60806040526004361061023f5760003560e01c80637d5e81e21161012e578063c59057e4116100ab578063eb9019d41161006f578063eb9019d4146109ac578063ece40cc1146109e9578063f23a6e6114610a12578063f8ce560a14610a4f578063fc0c546a14610a8c57610285565b8063c59057e4146108c5578063d33219b414610902578063dd4e2ba51461092d578063deaaa7cc14610958578063ea0217cf1461098357610285565b8063ab58fb8e116100f2578063ab58fb8e146107ba578063b58131b0146107f7578063bc197c8114610822578063c01f9e371461085f578063c28bc2fa1461089c57610285565b80637d5e81e2146106c157806397c3d334146106fe5780639a802a6d14610729578063a7713a7014610766578063a890c9101461079157610285565b80633932abb1116101bc57806354fd4d501161018057806354fd4d50146105b657806356781388146105e15780635f398a141461061e57806370b0f6601461065b5780637b3c71d31461068457610285565b80633932abb1146104955780633bccf4fd146104c05780633e4f49e6146104fd578063438596321461053a578063544ffc9c1461057757610285565b8063150b7a0211610203578063150b7a0214610383578063160cbed7146103c05780632656227d146103fd5780632d63f6931461042d5780632fe3e2611461046a57610285565b806301ffc9a71461028a57806302a251a3146102c757806303420181146102f257806306f3f9e61461032f57806306fdde031461035857610285565b36610285573073ffffffffffffffffffffffffffffffffffffffff16610263610ab7565b73ffffffffffffffffffffffffffffffffffffffff161461028357600080fd5b005b600080fd5b34801561029657600080fd5b506102b160048036038101906102ac91906138b5565b610ac6565b6040516102be91906138fd565b60405180910390f35b3480156102d357600080fd5b506102dc610ad8565b6040516102e99190613931565b60405180910390f35b3480156102fe57600080fd5b5061031960048036038101906103149190613b8d565b610ae7565b6040516103269190613931565b60405180910390f35b34801561033b57600080fd5b5061035660048036038101906103519190613c6b565b610bcc565b005b34801561036457600080fd5b5061036d610cc3565b60405161037a9190613d20565b60405180910390f35b34801561038f57600080fd5b506103aa60048036038101906103a59190613da0565b610d55565b6040516103b79190613e32565b60405180910390f35b3480156103cc57600080fd5b506103e760048036038101906103e291906140b4565b610d69565b6040516103f49190613931565b60405180910390f35b610417600480360381019061041291906140b4565b611023565b6040516104249190613931565b60405180910390f35b34801561043957600080fd5b50610454600480360381019061044f9190613c6b565b611170565b6040516104619190613931565b60405180910390f35b34801561047657600080fd5b5061047f6111de565b60405161048c919061417e565b60405180910390f35b3480156104a157600080fd5b506104aa611202565b6040516104b79190613931565b60405180910390f35b3480156104cc57600080fd5b506104e760048036038101906104e29190614199565b611211565b6040516104f49190613931565b60405180910390f35b34801561050957600080fd5b50610524600480360381019061051f9190613c6b565b61129b565b604051610531919061428b565b60405180910390f35b34801561054657600080fd5b50610561600480360381019061055c91906142a6565b6112ad565b60405161056e91906138fd565b60405180910390f35b34801561058357600080fd5b5061059e60048036038101906105999190613c6b565b611318565b6040516105ad939291906142e6565b60405180910390f35b3480156105c257600080fd5b506105cb611350565b6040516105d89190613d20565b60405180910390f35b3480156105ed57600080fd5b506106086004803603810190610603919061431d565b61138d565b6040516106159190613931565b60405180910390f35b34801561062a57600080fd5b506106456004803603810190610640919061435d565b6113be565b6040516106529190613931565b60405180910390f35b34801561066757600080fd5b50610682600480360381019061067d9190613c6b565b611428565b005b34801561069057600080fd5b506106ab60048036038101906106a69190614401565b61151f565b6040516106b89190613931565b60405180910390f35b3480156106cd57600080fd5b506106e860048036038101906106e39190614516565b611587565b6040516106f59190613931565b60405180910390f35b34801561070a57600080fd5b5061071361159f565b6040516107209190613931565b60405180910390f35b34801561073557600080fd5b50610750600480360381019061074b91906145ed565b6115a8565b60405161075d9190613931565b60405180910390f35b34801561077257600080fd5b5061077b6115be565b6040516107889190613931565b60405180910390f35b34801561079d57600080fd5b506107b860048036038101906107b391906146ac565b6115c8565b005b3480156107c657600080fd5b506107e160048036038101906107dc9190613c6b565b6116bf565b6040516107ee9190613931565b60405180910390f35b34801561080357600080fd5b5061080c61178c565b6040516108199190613931565b60405180910390f35b34801561082e57600080fd5b50610849600480360381019061084491906146d9565b61179b565b6040516108569190613e32565b60405180910390f35b34801561086b57600080fd5b5061088660048036038101906108819190613c6b565b6117b0565b6040516108939190613931565b60405180910390f35b3480156108a857600080fd5b506108c360048036038101906108be91906147fe565b61181e565b005b3480156108d157600080fd5b506108ec60048036038101906108e791906140b4565b61195f565b6040516108f99190613931565b60405180910390f35b34801561090e57600080fd5b5061091761199b565b6040516109249190614881565b60405180910390f35b34801561093957600080fd5b506109426119c5565b60405161094f9190613d20565b60405180910390f35b34801561096457600080fd5b5061096d611a02565b60405161097a919061417e565b60405180910390f35b34801561098f57600080fd5b506109aa60048036038101906109a59190613c6b565b611a26565b005b3480156109b857600080fd5b506109d360048036038101906109ce919061489c565b611b1d565b6040516109e09190613931565b60405180910390f35b3480156109f557600080fd5b50610a106004803603810190610a0b9190613c6b565b611b39565b005b348015610a1e57600080fd5b50610a396004803603810190610a3491906148dc565b611c30565b604051610a469190613e32565b60405180910390f35b348015610a5b57600080fd5b50610a766004803603810190610a719190613c6b565b611c45565b604051610a839190613931565b60405180910390f35b348015610a9857600080fd5b50610aa1611c57565b604051610aae91906149d2565b60405180910390f35b6000610ac1611c7b565b905090565b6000610ad182611ca5565b9050919050565b6000610ae2611d1f565b905090565b600080610b6a610b627fb3b3f3b703cd84ce352197dcff232b1b5d3cfb2025ce47cf04742d0651f1af888c8c8c8c604051610b23929190614a1d565b60405180910390208b80519060200120604051602001610b47959493929190614a45565b60405160208183030381529060405280519060200120611d29565b868686611d43565b9050610bbd8a828b8b8b8080601f016020809104026020016040519081016040528093929190818152602001838380828437600081840152601f19601f820116905080830192505050505050508a611d6e565b91505098975050505050505050565b610bd4610ab7565b73ffffffffffffffffffffffffffffffffffffffff16610bf2611f2a565b73ffffffffffffffffffffffffffffffffffffffff1614610c48576040517f08c379a0000000000000000000000000000000000000000000000000000000008152600401610c3f90614ae4565b60405180910390fd5b3073ffffffffffffffffffffffffffffffffffffffff16610c67610ab7565b73ffffffffffffffffffffffffffffffffffffffff1614610cb7576000610c8c611f32565b604051610c9a929190614a1d565b604051809103902090505b80610cb06002611f3f565b03610ca557505b610cc08161201b565b50565b606060008054610cd290614b33565b80601f0160208091040260200160405190810160405280929190818152602001828054610cfe90614b33565b8015610d4b5780601f10610d2057610100808354040283529160200191610d4b565b820191906000526020600020905b815481529060010190602001808311610d2e57829003601f168201915b5050505050905090565b600063150b7a0260e01b9050949350505050565b600080610d788686868661195f565b905060046007811115610d8e57610d8d614214565b5b610d978261129b565b6007811115610da957610da8614214565b5b14610de9576040517f08c379a0000000000000000000000000000000000000000000000000000000008152600401610de090614bd6565b60405180910390fd5b6000600960009054906101000a900473ffffffffffffffffffffffffffffffffffffffff1673ffffffffffffffffffffffffffffffffffffffff1663f27a0c926040518163ffffffff1660e01b8152600401602060405180830381865afa158015610e58573d6000803e3d6000fd5b505050506040513d601f19601f82011682018060405250810190610e7c9190614c0b565b9050600960009054906101000a900473ffffffffffffffffffffffffffffffffffffffff1673ffffffffffffffffffffffffffffffffffffffff1663b1c5f4278888886000896040518663ffffffff1660e01b8152600401610ee2959493929190614f13565b602060405180830381865afa158015610eff573d6000803e3d6000fd5b505050506040513d601f19601f82011682018060405250810190610f239190614f90565b600a600084815260200190815260200160002081905550600960009054906101000a900473ffffffffffffffffffffffffffffffffffffffff1673ffffffffffffffffffffffffffffffffffffffff16638f2a0bb0888888600089876040518763ffffffff1660e01b8152600401610fa096959493929190614fbd565b600060405180830381600087803b158015610fba57600080fd5b505af1158015610fce573d6000803e3d6000fd5b505050507f9a2e42fd6722813d69113e7d0079d3d940171428df7373df9c7f7617cfda28928282426110009190615062565b60405161100e9291906150b8565b60405180910390a18192505050949350505050565b6000806110328686868661195f565b9050600061103f8261129b565b90506004600781111561105557611054614214565b5b81600781111561106857611067614214565b5b148061109857506005600781111561108357611082614214565b5b81600781111561109657611095614214565b5b145b6110d7576040517f08c379a00000000000000000000000000000000000000000000000000000000081526004016110ce90614bd6565b60405180910390fd5b600180600084815260200190815260200160002060020160006101000a81548160ff0219169083151502179055507f712ae1383f79ac853f8d882153778e0260ef8f03b504e2866e0593e04d2b291f826040516111349190613931565b60405180910390a161114982888888886120b0565b6111568288888888612193565b61116382888888886121a7565b8192505050949350505050565b60006111cd600160008481526020019081526020016000206000016040518060200160405290816000820160009054906101000a900467ffffffffffffffff1667ffffffffffffffff1667ffffffffffffffff1681525050612202565b67ffffffffffffffff169050919050565b7fb3b3f3b703cd84ce352197dcff232b1b5d3cfb2025ce47cf04742d0651f1af8881565b600061120c612210565b905090565b60008061127261126a7f150214d74d59b7d1e90c73fc22ef3d991dd0a76b046543d4d80ab92d2a50328f898960405160200161124f939291906150e1565b60405160208183030381529060405280519060200120611d29565b868686611d43565b905061128f8782886040518060200160405280600081525061221a565b91505095945050505050565b60006112a68261223a565b9050919050565b60006007600084815260200190815260200160002060030160008373ffffffffffffffffffffffffffffffffffffffff1673ffffffffffffffffffffffffffffffffffffffff16815260200190815260200160002060009054906101000a900460ff16905092915050565b600080600080600760008681526020019081526020016000209050806000015481600101548260020154935093509350509193909250565b60606040518060400160405280600181526020017f3100000000000000000000000000000000000000000000000000000000000000815250905090565b600080611398611f2a565b90506113b58482856040518060200160405280600081525061221a565b91505092915050565b6000806113c9611f2a565b905061141c87828888888080601f016020809104026020016040519081016040528093929190818152602001838380828437600081840152601f19601f8201169050808301925050505050505087611d6e565b91505095945050505050565b611430610ab7565b73ffffffffffffffffffffffffffffffffffffffff1661144e611f2a565b73ffffffffffffffffffffffffffffffffffffffff16146114a4576040517f08c379a000000000000000000000000000000000000000000000000000000000815260040161149b90614ae4565b60405180910390fd5b3073ffffffffffffffffffffffffffffffffffffffff166114c3610ab7565b73ffffffffffffffffffffffffffffffffffffffff16146115135760006114e8611f32565b6040516114f6929190614a1d565b604051809103902090505b8061150c6002611f3f565b0361150157505b61151c8161240d565b50565b60008061152a611f2a565b905061157c86828787878080601f016020809104026020016040519081016040528093929190818152602001838380828437600081840152601f19601f8201169050808301925050505050505061221a565b915050949350505050565b600061159585858585612452565b9050949350505050565b60006064905090565b60006115b5848484612759565b90509392505050565b6000600854905090565b6115d0610ab7565b73ffffffffffffffffffffffffffffffffffffffff166115ee611f2a565b73ffffffffffffffffffffffffffffffffffffffff1614611644576040517f08c379a000000000000000000000000000000000000000000000000000000000815260040161163b90614ae4565b60405180910390fd5b3073ffffffffffffffffffffffffffffffffffffffff16611663610ab7565b73ffffffffffffffffffffffffffffffffffffffff16146116b3576000611688611f32565b604051611696929190614a1d565b604051809103902090505b806116ac6002611f3f565b036116a157505b6116bc81612800565b50565b600080600960009054906101000a900473ffffffffffffffffffffffffffffffffffffffff1673ffffffffffffffffffffffffffffffffffffffff1663d45c4435600a6000868152602001908152602001600020546040518263ffffffff1660e01b8152600401611730919061417e565b602060405180830381865afa15801561174d573d6000803e3d6000fd5b505050506040513d601f19601f820116820180604052508101906117719190614c0b565b9050600181146117815780611784565b60005b915050919050565b600061179661289f565b905090565b600063bc197c8160e01b905095945050505050565b600061180d600160008481526020019081526020016000206001016040518060200160405290816000820160009054906101000a900467ffffffffffffffff1667ffffffffffffffff1667ffffffffffffffff1681525050612202565b67ffffffffffffffff169050919050565b611826610ab7565b73ffffffffffffffffffffffffffffffffffffffff16611844611f2a565b73ffffffffffffffffffffffffffffffffffffffff161461189a576040517f08c379a000000000000000000000000000000000000000000000000000000000815260040161189190614ae4565b60405180910390fd5b3073ffffffffffffffffffffffffffffffffffffffff166118b9610ab7565b73ffffffffffffffffffffffffffffffffffffffff16146119095760006118de611f32565b6040516118ec929190614a1d565b604051809103902090505b806119026002611f3f565b036118f757505b6119588483838080601f016020809104026020016040519081016040528093929190818152602001838380828437600081840152601f19601f82011690508083019250505050505050856128a9565b5050505050565b6000848484846040516020016119789493929190615118565b6040516020818303038152906040528051906020012060001c9050949350505050565b6000600960009054906101000a900473ffffffffffffffffffffffffffffffffffffffff16905090565b60606040518060400160405280602081526020017f737570706f72743d627261766f2671756f72756d3d666f722c6162737461696e815250905090565b7f150214d74d59b7d1e90c73fc22ef3d991dd0a76b046543d4d80ab92d2a50328f81565b611a2e610ab7565b73ffffffffffffffffffffffffffffffffffffffff16611a4c611f2a565b73ffffffffffffffffffffffffffffffffffffffff1614611aa2576040517f08c379a0000000000000000000000000000000000000000000000000000000008152600401611a9990614ae4565b60405180910390fd5b3073ffffffffffffffffffffffffffffffffffffffff16611ac1610ab7565b73ffffffffffffffffffffffffffffffffffffffff1614611b11576000611ae6611f32565b604051611af4929190614a1d565b604051809103902090505b80611b0a6002611f3f565b03611aff57505b611b1a816128d8565b50565b6000611b318383611b2c612960565b612759565b905092915050565b611b41610ab7565b73ffffffffffffffffffffffffffffffffffffffff16611b5f611f2a565b73ffffffffffffffffffffffffffffffffffffffff1614611bb5576040517f08c379a0000000000000000000000000000000000000000000000000000000008152600401611bac90614ae4565b60405180910390fd5b3073ffffffffffffffffffffffffffffffffffffffff16611bd4610ab7565b73ffffffffffffffffffffffffffffffffffffffff1614611c24576000611bf9611f32565b604051611c07929190614a1d565b604051809103902090505b80611c1d6002611f3f565b03611c1257505b611c2d81612977565b50565b600063f23a6e6160e01b905095945050505050565b6000611c50826129bc565b9050919050565b7f000000000000000000000000000000000000000000000000000000000000000081565b6000600960009054906101000a900473ffffffffffffffffffffffffffffffffffffffff16905090565b60007f6e665ced000000000000000000000000000000000000000000000000000000007bffffffffffffffffffffffffffffffffffffffffffffffffffffffff1916827bffffffffffffffffffffffffffffffffffffffffffffffffffffffff19161480611d185750611d1782612a83565b5b9050919050565b6000600554905090565b6000611d3c611d36612be8565b83612d02565b9050919050565b6000806000611d5487878787612d35565b91509150611d6181612e41565b8192505050949350505050565b60008060016000888152602001908152602001600020905060016007811115611d9a57611d99614214565b5b611da38861129b565b6007811115611db557611db4614214565b5b14611df5576040517f08c379a0000000000000000000000000000000000000000000000000000000008152600401611dec906151e4565b60405180910390fd5b6000611e5487611e44846000016040518060200160405290816000820160009054906101000a900467ffffffffffffffff1667ffffffffffffffff1667ffffffffffffffff1681525050612202565b67ffffffffffffffff1686612759565b9050611e63888888848861300d565b6000845103611ec5578673ffffffffffffffffffffffffffffffffffffffff167fb8e138887d0aa13bab447e82de9d5c1777041ecd21ca36ba824ff1e6c07ddda489888489604051611eb89493929190615204565b60405180910390a2611f1c565b8673ffffffffffffffffffffffffffffffffffffffff167fe2babfbac5889a709b63bb7f598b324e08bc5a4fb9ec647fb3cbc9ec07eb87128988848989604051611f1395949392919061529a565b60405180910390a25b809250505095945050505050565b600033905090565b3660008036915091509091565b6000611f4a82613211565b15611f81576040517f3db2a12a00000000000000000000000000000000000000000000000000000000815260040160405180910390fd5b60008260000160009054906101000a9004600f0b905082600101600082600f0b600f0b815260200190815260200160002054915082600101600082600f0b600f0b815260200190815260200160002060009055600181018360000160006101000a8154816fffffffffffffffffffffffffffffffff0219169083600f0b6fffffffffffffffffffffffffffffffff16021790555050919050565b61202361159f565b811115612065576040517f08c379a000000000000000000000000000000000000000000000000000000000815260040161205c90615393565b60405180910390fd5b60006008549050816008819055507f0553476bf02ef2726e8ce5ced78d63e26e602e4a2257b1f559418e24b463399781836040516120a49291906150b8565b60405180910390a15050565b3073ffffffffffffffffffffffffffffffffffffffff166120cf610ab7565b73ffffffffffffffffffffffffffffffffffffffff161461218c5760005b845181101561218a573073ffffffffffffffffffffffffffffffffffffffff168582815181106121205761211f6153b3565b5b602002602001015173ffffffffffffffffffffffffffffffffffffffff160361217957612178838281518110612159576121586153b3565b5b602002602001015180519060200120600261324690919063ffffffff16565b5b80612183906153e2565b90506120ed565b505b5050505050565b6121a085858585856132c2565b5050505050565b3073ffffffffffffffffffffffffffffffffffffffff166121c6610ab7565b73ffffffffffffffffffffffffffffffffffffffff16146121fb576121eb6002613211565b6121fa576121f96002613360565b5b5b5050505050565b600081600001519050919050565b6000600454905090565b60006122308585858561222b612960565b611d6e565b9050949350505050565b600080612246836133e1565b90506004600781111561225c5761225b614214565b5b81600781111561226f5761226e614214565b5b1461227d5780915050612408565b6000600a60008581526020019081526020016000205490506000801b81036122a9578192505050612408565b600960009054906101000a900473ffffffffffffffffffffffffffffffffffffffff1673ffffffffffffffffffffffffffffffffffffffff16632ab0f529826040518263ffffffff1660e01b8152600401612304919061417e565b602060405180830381865afa158015612321573d6000803e3d6000fd5b505050506040513d601f19601f820116820180604052508101906123459190615456565b1561235557600792505050612408565b600960009054906101000a900473ffffffffffffffffffffffffffffffffffffffff1673ffffffffffffffffffffffffffffffffffffffff1663584b153e826040518263ffffffff1660e01b81526004016123b0919061417e565b602060405180830381865afa1580156123cd573d6000803e3d6000fd5b505050506040513d601f19601f820116820180604052508101906123f19190615456565b1561240157600592505050612408565b6002925050505b919050565b7fc565b045403dc03c2eea82b81a0465edad9e2e7fc4d97e11421c209da93d7a93600454826040516124409291906150b8565b60405180910390a18060048190555050565b600061245c61178c565b612479612467611f2a565b6001436124749190615483565b611b1d565b10156124ba576040517f08c379a00000000000000000000000000000000000000000000000000000000081526004016124b190615529565b60405180910390fd5b60006124cf868686868051906020012061195f565b90508451865114612515576040517f08c379a000000000000000000000000000000000000000000000000000000000815260040161250c906155bb565b60405180910390fd5b8351865114612559576040517f08c379a0000000000000000000000000000000000000000000000000000000008152600401612550906155bb565b60405180910390fd5b600086511161259d576040517f08c379a000000000000000000000000000000000000000000000000000000000815260040161259490615627565b60405180910390fd5b60006001600083815260200190815260200160002090506125fd816000016040518060200160405290816000820160009054906101000a900467ffffffffffffffff1667ffffffffffffffff1667ffffffffffffffff16815250506134f5565b61263c576040517f08c379a0000000000000000000000000000000000000000000000000000000008152600401612633906156b9565b60405180910390fd5b600061264e612649611202565b61350f565b6126574361350f565b61266191906156ed565b90506000612675612670610ad8565b61350f565b8261268091906156ed565b9050612698828460000161356690919063ffffffff16565b6126ae818460010161356690919063ffffffff16565b7f7d84a6263ae0d98d3329bd7b46bb4e8d6f98cd35a7adb45c274c8b7fd5ebd5e0846126d8611f2a565b8b8b8d5167ffffffffffffffff8111156126f5576126f4613a2c565b5b60405190808252806020026020018201604052801561272857816020015b60608152602001906001900390816127135790505b508c88888e60405161274299989796959493929190615868565b60405180910390a183945050505050949350505050565b60007f000000000000000000000000000000000000000000000000000000000000000073ffffffffffffffffffffffffffffffffffffffff16633a46b1a885856040518363ffffffff1660e01b81526004016127b6929190615918565b602060405180830381865afa1580156127d3573d6000803e3d6000fd5b505050506040513d601f19601f820116820180604052508101906127f79190614c0b565b90509392505050565b7f08f74ea46ef7894f65eabfb5e6e695de773a000b47c529ab559178069b226401600960009054906101000a900473ffffffffffffffffffffffffffffffffffffffff1682604051612853929190615941565b60405180910390a180600960006101000a81548173ffffffffffffffffffffffffffffffffffffffff021916908373ffffffffffffffffffffffffffffffffffffffff16021790555050565b6000600654905090565b60606128cf84848460405180606001604052806029815260200161616260299139613595565b90509392505050565b6000811161291b576040517f08c379a0000000000000000000000000000000000000000000000000000000008152600401612912906159dc565b60405180910390fd5b7f7e3f7f0708a84de9203036abaa450dccc85ad5ff52f78c170f3edb55cf5e88286005548260405161294e9291906150b8565b60405180910390a18060058190555050565b606060405180602001604052806000815250905090565b7fccb45da8d5717e6c4544694297c4ba5cf151d455c9bb0ed4fc7a38411bc05461600654826040516129aa9291906150b8565b60405180910390a18060068190555050565b60006129c661159f565b6129ce6115be565b7f000000000000000000000000000000000000000000000000000000000000000073ffffffffffffffffffffffffffffffffffffffff16638e539e8c856040518263ffffffff1660e01b8152600401612a279190613931565b602060405180830381865afa158015612a44573d6000803e3d6000fd5b505050506040513d601f19601f82011682018060405250810190612a689190614c0b565b612a7291906159fc565b612a7c9190615a85565b9050919050565b6000639a802a6d60e01b630342018160e01b635f398a1460e01b7f79dd796f000000000000000000000000000000000000000000000000000000001818187bffffffffffffffffffffffffffffffffffffffffffffffffffffffff1916827bffffffffffffffffffffffffffffffffffffffffffffffffffffffff19161480612b6957507f79dd796f000000000000000000000000000000000000000000000000000000007bffffffffffffffffffffffffffffffffffffffffffffffffffffffff1916827bffffffffffffffffffffffffffffffffffffffffffffffffffffffff1916145b80612bd157507f4e2312e0000000000000000000000000000000000000000000000000000000007bffffffffffffffffffffffffffffffffffffffffffffffffffffffff1916827bffffffffffffffffffffffffffffffffffffffffffffffffffffffff1916145b80612be15750612be0826136a9565b5b9050919050565b60007f000000000000000000000000000000000000000000000000000000000000000073ffffffffffffffffffffffffffffffffffffffff163073ffffffffffffffffffffffffffffffffffffffff16148015612c6457507f000000000000000000000000000000000000000000000000000000000000000046145b15612c91577f00000000000000000000000000000000000000000000000000000000000000009050612cff565b612cfc7f00000000000000000000000000000000000000000000000000000000000000007f00000000000000000000000000000000000000000000000000000000000000007f0000000000000000000000000000000000000000000000000000000000000000613713565b90505b90565b60008282604051602001612d17929190615b2e565b60405160208183030381529060405280519060200120905092915050565b6000807f7fffffffffffffffffffffffffffffff5d576e7357a4501ddfe92f46681b20a08360001c1115612d70576000600391509150612e38565b601b8560ff1614158015612d885750601c8560ff1614155b15612d9a576000600491509150612e38565b600060018787878760405160008152602001604052604051612dbf9493929190615b65565b6020604051602081039080840390855afa158015612de1573d6000803e3d6000fd5b505050602060405103519050600073ffffffffffffffffffffffffffffffffffffffff168173ffffffffffffffffffffffffffffffffffffffff1603612e2f57600060019250925050612e38565b80600092509250505b94509492505050565b60006004811115612e5557612e54614214565b5b816004811115612e6857612e67614214565b5b031561300a5760016004811115612e8257612e81614214565b5b816004811115612e9557612e94614214565b5b03612ed5576040517f08c379a0000000000000000000000000000000000000000000000000000000008152600401612ecc90615bf6565b60405180910390fd5b60026004811115612ee957612ee8614214565b5b816004811115612efc57612efb614214565b5b03612f3c576040517f08c379a0000000000000000000000000000000000000000000000000000000008152600401612f3390615c62565b60405180910390fd5b60036004811115612f5057612f4f614214565b5b816004811115612f6357612f62614214565b5b03612fa3576040517f08c379a0000000000000000000000000000000000000000000000000000000008152600401612f9a90615cf4565b60405180910390fd5b600480811115612fb657612fb5614214565b5b816004811115612fc957612fc8614214565b5b03613009576040517f08c379a000000000000000000000000000000000000000000000000000000000815260040161300090615d86565b60405180910390fd5b5b50565b60006007600087815260200190815260200160002090508060030160008673ffffffffffffffffffffffffffffffffffffffff1673ffffffffffffffffffffffffffffffffffffffff16815260200190815260200160002060009054906101000a900460ff16156130b3576040517f08c379a00000000000000000000000000000000000000000000000000000000081526004016130aa90615e18565b60405180910390fd5b60018160030160008773ffffffffffffffffffffffffffffffffffffffff1673ffffffffffffffffffffffffffffffffffffffff16815260200190815260200160002060006101000a81548160ff0219169083151502179055506000600281111561312157613120614214565b5b60ff168460ff160361314d57828160000160008282546131419190615062565b92505081905550613209565b6001600281111561316157613160614214565b5b60ff168460ff160361318d57828160010160008282546131819190615062565b92505081905550613208565b6002808111156131a05761319f614214565b5b60ff168460ff16036131cc57828160020160008282546131c09190615062565b92505081905550613207565b6040517f08c379a00000000000000000000000000000000000000000000000000000000081526004016131fe90615eaa565b60405180910390fd5b5b5b505050505050565b60008160000160009054906101000a9004600f0b600f0b8260000160109054906101000a9004600f0b600f0b13159050919050565b60008260000160109054906101000a9004600f0b90508183600101600083600f0b600f0b815260200190815260200160002081905550600181018360000160106101000a8154816fffffffffffffffffffffffffffffffff0219169083600f0b6fffffffffffffffffffffffffffffffff160217905550505050565b600960009054906101000a900473ffffffffffffffffffffffffffffffffffffffff1673ffffffffffffffffffffffffffffffffffffffff1663e38335e5348686866000876040518763ffffffff1660e01b8152600401613327959493929190614f13565b6000604051808303818588803b15801561334057600080fd5b505af1158015613354573d6000803e3d6000fd5b50505050505050505050565b60008160000160006101000a8154816fffffffffffffffffffffffffffffffff0219169083600f0b6fffffffffffffffffffffffffffffffff16021790555060008160000160106101000a8154816fffffffffffffffffffffffffffffffff0219169083600f0b6fffffffffffffffffffffffffffffffff16021790555050565b6000806001600084815260200190815260200160002090508060020160009054906101000a900460ff161561341a5760079150506134f0565b8060020160019054906101000a900460ff161561343b5760029150506134f0565b600061344684611170565b90506000810361348b576040517f08c379a000000000000000000000000000000000000000000000000000000000815260040161348290615f16565b60405180910390fd5b43811061349d576000925050506134f0565b60006134a8856117b0565b90504381106134bd57600193505050506134f0565b6134c68561374d565b80156134d757506134d685613794565b5b156134e857600493505050506134f0565b600393505050505b919050565b600080826000015167ffffffffffffffff16149050919050565b600067ffffffffffffffff801682111561355e576040517f08c379a000000000000000000000000000000000000000000000000000000000815260040161355590615fa8565b60405180910390fd5b819050919050565b808260000160006101000a81548167ffffffffffffffff021916908367ffffffffffffffff1602179055505050565b6060824710156135da576040517f08c379a00000000000000000000000000000000000000000000000000000000081526004016135d19061603a565b60405180910390fd5b6135e3856137bf565b613622576040517f08c379a0000000000000000000000000000000000000000000000000000000008152600401613619906160a6565b60405180910390fd5b6000808673ffffffffffffffffffffffffffffffffffffffff16858760405161364b91906160f7565b60006040518083038185875af1925050503d8060008114613688576040519150601f19603f3d011682016040523d82523d6000602084013e61368d565b606091505b509150915061369d8282866137e2565b92505050949350505050565b60007f01ffc9a7000000000000000000000000000000000000000000000000000000007bffffffffffffffffffffffffffffffffffffffffffffffffffffffff1916827bffffffffffffffffffffffffffffffffffffffffffffffffffffffff1916149050919050565b6000838383463060405160200161372e95949392919061610e565b6040516020818303038152906040528051906020012090509392505050565b600080600760008481526020019081526020016000209050806002015481600101546137799190615062565b61378a61378585611170565b611c45565b1115915050919050565b6000806007600084815260200190815260200160002090508060000154816001015411915050919050565b6000808273ffffffffffffffffffffffffffffffffffffffff163b119050919050565b606083156137f257829050613842565b6000835111156138055782518084602001fd5b816040517f08c379a00000000000000000000000000000000000000000000000000000000081526004016138399190613d20565b60405180910390fd5b9392505050565b6000604051905090565b600080fd5b600080fd5b60007fffffffff0000000000000000000000000000000000000000000000000000000082169050919050565b6138928161385d565b811461389d57600080fd5b50565b6000813590506138af81613889565b92915050565b6000602082840312156138cb576138ca613853565b5b60006138d9848285016138a0565b91505092915050565b60008115159050919050565b6138f7816138e2565b82525050565b600060208201905061391260008301846138ee565b92915050565b6000819050919050565b61392b81613918565b82525050565b60006020820190506139466000830184613922565b92915050565b61395581613918565b811461396057600080fd5b50565b6000813590506139728161394c565b92915050565b600060ff82169050919050565b61398e81613978565b811461399957600080fd5b50565b6000813590506139ab81613985565b92915050565b600080fd5b600080fd5b600080fd5b60008083601f8401126139d6576139d56139b1565b5b8235905067ffffffffffffffff8111156139f3576139f26139b6565b5b602083019150836001820283011115613a0f57613a0e6139bb565b5b9250929050565b600080fd5b6000601f19601f8301169050919050565b7f4e487b7100000000000000000000000000000000000000000000000000000000600052604160045260246000fd5b613a6482613a1b565b810181811067ffffffffffffffff82111715613a8357613a82613a2c565b5b80604052505050565b6000613a96613849565b9050613aa28282613a5b565b919050565b600067ffffffffffffffff821115613ac257613ac1613a2c565b5b613acb82613a1b565b9050602081019050919050565b82818337600083830152505050565b6000613afa613af584613aa7565b613a8c565b905082815260208101848484011115613b1657613b15613a16565b5b613b21848285613ad8565b509392505050565b600082601f830112613b3e57613b3d6139b1565b5b8135613b4e848260208601613ae7565b91505092915050565b6000819050919050565b613b6a81613b57565b8114613b7557600080fd5b50565b600081359050613b8781613b61565b92915050565b60008060008060008060008060e0898b031215613bad57613bac613853565b5b6000613bbb8b828c01613963565b9850506020613bcc8b828c0161399c565b975050604089013567ffffffffffffffff811115613bed57613bec613858565b5b613bf98b828c016139c0565b9650965050606089013567ffffffffffffffff811115613c1c57613c1b613858565b5b613c288b828c01613b29565b9450506080613c398b828c0161399c565b93505060a0613c4a8b828c01613b78565b92505060c0613c5b8b828c01613b78565b9150509295985092959890939650565b600060208284031215613c8157613c80613853565b5b6000613c8f84828501613963565b91505092915050565b600081519050919050565b600082825260208201905092915050565b60005b83811015613cd2578082015181840152602081019050613cb7565b83811115613ce1576000848401525b50505050565b6000613cf282613c98565b613cfc8185613ca3565b9350613d0c818560208601613cb4565b613d1581613a1b565b840191505092915050565b60006020820190508181036000830152613d3a8184613ce7565b905092915050565b600073ffffffffffffffffffffffffffffffffffffffff82169050919050565b6000613d6d82613d42565b9050919050565b613d7d81613d62565b8114613d8857600080fd5b50565b600081359050613d9a81613d74565b92915050565b60008060008060808587031215613dba57613db9613853565b5b6000613dc887828801613d8b565b9450506020613dd987828801613d8b565b9350506040613dea87828801613963565b925050606085013567ffffffffffffffff811115613e0b57613e0a613858565b5b613e1787828801613b29565b91505092959194509250565b613e2c8161385d565b82525050565b6000602082019050613e476000830184613e23565b92915050565b600067ffffffffffffffff821115613e6857613e67613a2c565b5b602082029050602081019050919050565b6000613e8c613e8784613e4d565b613a8c565b90508083825260208201905060208402830185811115613eaf57613eae6139bb565b5b835b81811015613ed85780613ec48882613d8b565b845260208401935050602081019050613eb1565b5050509392505050565b600082601f830112613ef757613ef66139b1565b5b8135613f07848260208601613e79565b91505092915050565b600067ffffffffffffffff821115613f2b57613f2a613a2c565b5b602082029050602081019050919050565b6000613f4f613f4a84613f10565b613a8c565b90508083825260208201905060208402830185811115613f7257613f716139bb565b5b835b81811015613f9b5780613f878882613963565b845260208401935050602081019050613f74565b5050509392505050565b600082601f830112613fba57613fb96139b1565b5b8135613fca848260208601613f3c565b91505092915050565b600067ffffffffffffffff821115613fee57613fed613a2c565b5b602082029050602081019050919050565b600061401261400d84613fd3565b613a8c565b90508083825260208201905060208402830185811115614035576140346139bb565b5b835b8181101561407c57803567ffffffffffffffff81111561405a576140596139b1565b5b8086016140678982613b29565b85526020850194505050602081019050614037565b5050509392505050565b600082601f83011261409b5761409a6139b1565b5b81356140ab848260208601613fff565b91505092915050565b600080600080608085870312156140ce576140cd613853565b5b600085013567ffffffffffffffff8111156140ec576140eb613858565b5b6140f887828801613ee2565b945050602085013567ffffffffffffffff81111561411957614118613858565b5b61412587828801613fa5565b935050604085013567ffffffffffffffff81111561414657614145613858565b5b61415287828801614086565b925050606061416387828801613b78565b91505092959194509250565b61417881613b57565b82525050565b6000602082019050614193600083018461416f565b92915050565b600080600080600060a086880312156141b5576141b4613853565b5b60006141c388828901613963565b95505060206141d48882890161399c565b94505060406141e58882890161399c565b93505060606141f688828901613b78565b925050608061420788828901613b78565b9150509295509295909350565b7f4e487b7100000000000000000000000000000000000000000000000000000000600052602160045260246000fd5b6008811061425457614253614214565b5b50565b600081905061426582614243565b919050565b600061427582614257565b9050919050565b6142858161426a565b82525050565b60006020820190506142a0600083018461427c565b92915050565b600080604083850312156142bd576142bc613853565b5b60006142cb85828601613963565b92505060206142dc85828601613d8b565b9150509250929050565b60006060820190506142fb6000830186613922565b6143086020830185613922565b6143156040830184613922565b949350505050565b6000806040838503121561433457614333613853565b5b600061434285828601613963565b92505060206143538582860161399c565b9150509250929050565b60008060008060006080868803121561437957614378613853565b5b600061438788828901613963565b95505060206143988882890161399c565b945050604086013567ffffffffffffffff8111156143b9576143b8613858565b5b6143c5888289016139c0565b9350935050606086013567ffffffffffffffff8111156143e8576143e7613858565b5b6143f488828901613b29565b9150509295509295909350565b6000806000806060858703121561441b5761441a613853565b5b600061442987828801613963565b945050602061443a8782880161399c565b935050604085013567ffffffffffffffff81111561445b5761445a613858565b5b614467878288016139c0565b925092505092959194509250565b600067ffffffffffffffff8211156144905761448f613a2c565b5b61449982613a1b565b9050602081019050919050565b60006144b96144b484614475565b613a8c565b9050828152602081018484840111156144d5576144d4613a16565b5b6144e0848285613ad8565b509392505050565b600082601f8301126144fd576144fc6139b1565b5b813561450d8482602086016144a6565b91505092915050565b600080600080608085870312156145305761452f613853565b5b600085013567ffffffffffffffff81111561454e5761454d613858565b5b61455a87828801613ee2565b945050602085013567ffffffffffffffff81111561457b5761457a613858565b5b61458787828801613fa5565b935050604085013567ffffffffffffffff8111156145a8576145a7613858565b5b6145b487828801614086565b925050606085013567ffffffffffffffff8111156145d5576145d4613858565b5b6145e1878288016144e8565b91505092959194509250565b60008060006060848603121561460657614605613853565b5b600061461486828701613d8b565b935050602061462586828701613963565b925050604084013567ffffffffffffffff81111561464657614645613858565b5b61465286828701613b29565b9150509250925092565b600061466782613d42565b9050919050565b60006146798261465c565b9050919050565b6146898161466e565b811461469457600080fd5b50565b6000813590506146a681614680565b92915050565b6000602082840312156146c2576146c1613853565b5b60006146d084828501614697565b91505092915050565b600080600080600060a086880312156146f5576146f4613853565b5b600061470388828901613d8b565b955050602061471488828901613d8b565b945050604086013567ffffffffffffffff81111561473557614734613858565b5b61474188828901613fa5565b935050606086013567ffffffffffffffff81111561476257614761613858565b5b61476e88828901613fa5565b925050608086013567ffffffffffffffff81111561478f5761478e613858565b5b61479b88828901613b29565b9150509295509295909350565b60008083601f8401126147be576147bd6139b1565b5b8235905067ffffffffffffffff8111156147db576147da6139b6565b5b6020830191508360018202830111156147f7576147f66139bb565b5b9250929050565b6000806000806060858703121561481857614817613853565b5b600061482687828801613d8b565b945050602061483787828801613963565b935050604085013567ffffffffffffffff81111561485857614857613858565b5b614864878288016147a8565b925092505092959194509250565b61487b81613d62565b82525050565b60006020820190506148966000830184614872565b92915050565b600080604083850312156148b3576148b2613853565b5b60006148c185828601613d8b565b92505060206148d285828601613963565b9150509250929050565b600080600080600060a086880312156148f8576148f7613853565b5b600061490688828901613d8b565b955050602061491788828901613d8b565b945050604061492888828901613963565b935050606061493988828901613963565b925050608086013567ffffffffffffffff81111561495a57614959613858565b5b61496688828901613b29565b9150509295509295909350565b6000819050919050565b600061499861499361498e84613d42565b614973565b613d42565b9050919050565b60006149aa8261497d565b9050919050565b60006149bc8261499f565b9050919050565b6149cc816149b1565b82525050565b60006020820190506149e760008301846149c3565b92915050565b600081905092915050565b6000614a0483856149ed565b9350614a11838584613ad8565b82840190509392505050565b6000614a2a8284866149f8565b91508190509392505050565b614a3f81613978565b82525050565b600060a082019050614a5a600083018861416f565b614a676020830187613922565b614a746040830186614a36565b614a81606083018561416f565b614a8e608083018461416f565b9695505050505050565b7f476f7665726e6f723a206f6e6c79476f7665726e616e63650000000000000000600082015250565b6000614ace601883613ca3565b9150614ad982614a98565b602082019050919050565b60006020820190508181036000830152614afd81614ac1565b9050919050565b7f4e487b7100000000000000000000000000000000000000000000000000000000600052602260045260246000fd5b60006002820490506001821680614b4b57607f821691505b602082108103614b5e57614b5d614b04565b5b50919050565b7f476f7665726e6f723a2070726f706f73616c206e6f742073756363657373667560008201527f6c00000000000000000000000000000000000000000000000000000000000000602082015250565b6000614bc0602183613ca3565b9150614bcb82614b64565b604082019050919050565b60006020820190508181036000830152614bef81614bb3565b9050919050565b600081519050614c058161394c565b92915050565b600060208284031215614c2157614c20613853565b5b6000614c2f84828501614bf6565b91505092915050565b600081519050919050565b600082825260208201905092915050565b6000819050602082019050919050565b614c6d81613d62565b82525050565b6000614c7f8383614c64565b60208301905092915050565b6000602082019050919050565b6000614ca382614c38565b614cad8185614c43565b9350614cb883614c54565b8060005b83811015614ce9578151614cd08882614c73565b9750614cdb83614c8b565b925050600181019050614cbc565b5085935050505092915050565b600081519050919050565b600082825260208201905092915050565b6000819050602082019050919050565b614d2b81613918565b82525050565b6000614d3d8383614d22565b60208301905092915050565b6000602082019050919050565b6000614d6182614cf6565b614d6b8185614d01565b9350614d7683614d12565b8060005b83811015614da7578151614d8e8882614d31565b9750614d9983614d49565b925050600181019050614d7a565b5085935050505092915050565b600081519050919050565b600082825260208201905092915050565b6000819050602082019050919050565b600081519050919050565b600082825260208201905092915050565b6000614e0782614de0565b614e118185614deb565b9350614e21818560208601613cb4565b614e2a81613a1b565b840191505092915050565b6000614e418383614dfc565b905092915050565b6000602082019050919050565b6000614e6182614db4565b614e6b8185614dbf565b935083602082028501614e7d85614dd0565b8060005b85811015614eb95784840389528151614e9a8582614e35565b9450614ea583614e49565b925060208a01995050600181019050614e81565b50829750879550505050505092915050565b6000819050919050565b60008160001b9050919050565b6000614efd614ef8614ef384614ecb565b614ed5565b613b57565b9050919050565b614f0d81614ee2565b82525050565b600060a0820190508181036000830152614f2d8188614c98565b90508181036020830152614f418187614d56565b90508181036040830152614f558186614e56565b9050614f646060830185614f04565b614f71608083018461416f565b9695505050505050565b600081519050614f8a81613b61565b92915050565b600060208284031215614fa657614fa5613853565b5b6000614fb484828501614f7b565b91505092915050565b600060c0820190508181036000830152614fd78189614c98565b90508181036020830152614feb8188614d56565b90508181036040830152614fff8187614e56565b905061500e6060830186614f04565b61501b608083018561416f565b61502860a0830184613922565b979650505050505050565b7f4e487b7100000000000000000000000000000000000000000000000000000000600052601160045260246000fd5b600061506d82613918565b915061507883613918565b9250827fffffffffffffffffffffffffffffffffffffffffffffffffffffffffffffffff038211156150ad576150ac615033565b5b828201905092915050565b60006040820190506150cd6000830185613922565b6150da6020830184613922565b9392505050565b60006060820190506150f6600083018661416f565b6151036020830185613922565b6151106040830184614a36565b949350505050565b600060808201905081810360008301526151328187614c98565b905081810360208301526151468186614d56565b9050818103604083015261515a8185614e56565b9050615169606083018461416f565b95945050505050565b7f476f7665726e6f723a20766f7465206e6f742063757272656e746c792061637460008201527f6976650000000000000000000000000000000000000000000000000000000000602082015250565b60006151ce602383613ca3565b91506151d982615172565b604082019050919050565b600060208201905081810360008301526151fd816151c1565b9050919050565b60006080820190506152196000830187613922565b6152266020830186614a36565b6152336040830185613922565b81810360608301526152458184613ce7565b905095945050505050565b600082825260208201905092915050565b600061526c82614de0565b6152768185615250565b9350615286818560208601613cb4565b61528f81613a1b565b840191505092915050565b600060a0820190506152af6000830188613922565b6152bc6020830187614a36565b6152c96040830186613922565b81810360608301526152db8185613ce7565b905081810360808301526152ef8184615261565b90509695505050505050565b7f476f7665726e6f72566f74657351756f72756d4672616374696f6e3a2071756f60008201527f72756d4e756d657261746f72206f7665722071756f72756d44656e6f6d696e6160208201527f746f720000000000000000000000000000000000000000000000000000000000604082015250565b600061537d604383613ca3565b9150615388826152fb565b606082019050919050565b600060208201905081810360008301526153ac81615370565b9050919050565b7f4e487b7100000000000000000000000000000000000000000000000000000000600052603260045260246000fd5b60006153ed82613918565b91507fffffffffffffffffffffffffffffffffffffffffffffffffffffffffffffffff820361541f5761541e615033565b5b600182019050919050565b615433816138e2565b811461543e57600080fd5b50565b6000815190506154508161542a565b92915050565b60006020828403121561546c5761546b613853565b5b600061547a84828501615441565b91505092915050565b600061548e82613918565b915061549983613918565b9250828210156154ac576154ab615033565b5b828203905092915050565b7f476f7665726e6f723a2070726f706f73657220766f7465732062656c6f77207060008201527f726f706f73616c207468726573686f6c64000000000000000000000000000000602082015250565b6000615513603183613ca3565b915061551e826154b7565b604082019050919050565b6000602082019050818103600083015261554281615506565b9050919050565b7f476f7665726e6f723a20696e76616c69642070726f706f73616c206c656e677460008201527f6800000000000000000000000000000000000000000000000000000000000000602082015250565b60006155a5602183613ca3565b91506155b082615549565b604082019050919050565b600060208201905081810360008301526155d481615598565b9050919050565b7f476f7665726e6f723a20656d7074792070726f706f73616c0000000000000000600082015250565b6000615611601883613ca3565b915061561c826155db565b602082019050919050565b6000602082019050818103600083015261564081615604565b9050919050565b7f476f7665726e6f723a2070726f706f73616c20616c726561647920657869737460008201527f7300000000000000000000000000000000000000000000000000000000000000602082015250565b60006156a3602183613ca3565b91506156ae82615647565b604082019050919050565b600060208201905081810360008301526156d281615696565b9050919050565b600067ffffffffffffffff82169050919050565b60006156f8826156d9565b9150615703836156d9565b92508267ffffffffffffffff038211156157205761571f615033565b5b828201905092915050565b600081519050919050565b600082825260208201905092915050565b6000819050602082019050919050565b600082825260208201905092915050565b600061577382613c98565b61577d8185615757565b935061578d818560208601613cb4565b61579681613a1b565b840191505092915050565b60006157ad8383615768565b905092915050565b6000602082019050919050565b60006157cd8261572b565b6157d78185615736565b9350836020820285016157e985615747565b8060005b85811015615825578484038952815161580685826157a1565b9450615811836157b5565b925060208a019950506001810190506157ed565b50829750879550505050505092915050565b600061585261584d615848846156d9565b614973565b613918565b9050919050565b61586281615837565b82525050565b60006101208201905061587e600083018c613922565b61588b602083018b614872565b818103604083015261589d818a614c98565b905081810360608301526158b18189614d56565b905081810360808301526158c581886157c2565b905081810360a08301526158d98187614e56565b90506158e860c0830186615859565b6158f560e0830185615859565b8181036101008301526159088184613ce7565b90509a9950505050505050505050565b600060408201905061592d6000830185614872565b61593a6020830184613922565b9392505050565b60006040820190506159566000830185614872565b6159636020830184614872565b9392505050565b7f476f7665726e6f7253657474696e67733a20766f74696e6720706572696f642060008201527f746f6f206c6f7700000000000000000000000000000000000000000000000000602082015250565b60006159c6602783613ca3565b91506159d18261596a565b604082019050919050565b600060208201905081810360008301526159f5816159b9565b9050919050565b6000615a0782613918565b9150615a1283613918565b9250817fffffffffffffffffffffffffffffffffffffffffffffffffffffffffffffffff0483118215151615615a4b57615a4a615033565b5b828202905092915050565b7f4e487b7100000000000000000000000000000000000000000000000000000000600052601260045260246000fd5b6000615a9082613918565b9150615a9b83613918565b925082615aab57615aaa615a56565b5b828204905092915050565b600081905092915050565b7f1901000000000000000000000000000000000000000000000000000000000000600082015250565b6000615af7600283615ab6565b9150615b0282615ac1565b600282019050919050565b6000819050919050565b615b28615b2382613b57565b615b0d565b82525050565b6000615b3982615aea565b9150615b458285615b17565b602082019150615b558284615b17565b6020820191508190509392505050565b6000608082019050615b7a600083018761416f565b615b876020830186614a36565b615b94604083018561416f565b615ba1606083018461416f565b95945050505050565b7f45434453413a20696e76616c6964207369676e61747572650000000000000000600082015250565b6000615be0601883613ca3565b9150615beb82615baa565b602082019050919050565b60006020820190508181036000830152615c0f81615bd3565b9050919050565b7f45434453413a20696e76616c6964207369676e6174757265206c656e67746800600082015250565b6000615c4c601f83613ca3565b9150615c5782615c16565b602082019050919050565b60006020820190508181036000830152615c7b81615c3f565b9050919050565b7f45434453413a20696e76616c6964207369676e6174757265202773272076616c60008201527f7565000000000000000000000000000000000000000000000000000000000000602082015250565b6000615cde602283613ca3565b9150615ce982615c82565b604082019050919050565b60006020820190508181036000830152615d0d81615cd1565b9050919050565b7f45434453413a20696e76616c6964207369676e6174757265202776272076616c60008201527f7565000000000000000000000000000000000000000000000000000000000000602082015250565b6000615d70602283613ca3565b9150615d7b82615d14565b604082019050919050565b60006020820190508181036000830152615d9f81615d63565b9050919050565b7f476f7665726e6f72566f74696e6753696d706c653a20766f746520616c72656160008201527f6479206361737400000000000000000000000000000000000000000000000000602082015250565b6000615e02602783613ca3565b9150615e0d82615da6565b604082019050919050565b60006020820190508181036000830152615e3181615df5565b9050919050565b7f476f7665726e6f72566f74696e6753696d706c653a20696e76616c696420766160008201527f6c756520666f7220656e756d20566f7465547970650000000000000000000000602082015250565b6000615e94603583613ca3565b9150615e9f82615e38565b604082019050919050565b60006020820190508181036000830152615ec381615e87565b9050919050565b7f476f7665726e6f723a20756e6b6e6f776e2070726f706f73616c206964000000600082015250565b6000615f00601d83613ca3565b9150615f0b82615eca565b602082019050919050565b60006020820190508181036000830152615f2f81615ef3565b9050919050565b7f53616665436173743a2076616c756520646f65736e27742066697420696e203660008201527f3420626974730000000000000000000000000000000000000000000000000000602082015250565b6000615f92602683613ca3565b9150615f9d82615f36565b604082019050919050565b60006020820190508181036000830152615fc181615f85565b9050919050565b7f416464726573733a20696e73756666696369656e742062616c616e636520666f60008201527f722063616c6c0000000000000000000000000000000000000000000000000000602082015250565b6000616024602683613ca3565b915061602f82615fc8565b604082019050919050565b6000602082019050818103600083015261605381616017565b9050919050565b7f416464726573733a2063616c6c20746f206e6f6e2d636f6e7472616374000000600082015250565b6000616090601d83613ca3565b915061609b8261605a565b602082019050919050565b600060208201905081810360008301526160bf81616083565b9050919050565b60006160d182614de0565b6160db81856149ed565b93506160eb818560208601613cb4565b80840191505092915050565b600061610382846160c6565b915081905092915050565b600060a082019050616123600083018861416f565b616130602083018761416f565b61613d604083018661416f565b61614a6060830185613922565b6161576080830184614872565b969550505050505056fe416464726573733a206c6f772d6c6576656c2063616c6c20776974682076616c7565206661696c6564a2646970667358221220ba8979169fdbc59c11a7fb9ff2de6d024da054a0a51cc36b98939c932cb75a4c64736f6c634300080e0033",
  "immutableReferences": {
    "3669": [
      {
        "length": 32,
        "start": 7257
      },
      {
        "length": 32,
        "start": 10077
      },
      {
        "length": 32,
        "start": 10704
      }
    ],
    "6741": [
      {
        "length": 32,
        "start": 11371
      }
    ],
    "6743": [
      {
        "length": 32,
        "start": 11330
      }
    ],
    "6745": [
      {
        "length": 32,
        "start": 11244
      }
    ],
    "6747": [
      {
        "length": 32,
        "start": 11447
      }
    ],
    "6749": [
      {
        "length": 32,
        "start": 11480
      }
    ],
    "6751": [
      {
        "length": 32,
        "start": 11414
      }
    ]
  },
  "source": "// SPDX-License-Identifier: MIT\npragma solidity ^0.8.4;\n\nimport \"@openzeppelin/contracts/governance/Governor.sol\";\nimport \"@openzeppelin/contracts/governance/extensions/GovernorSettings.sol\";\nimport \"@openzeppelin/contracts/governance/extensions/GovernorCountingSimple.sol\";\nimport \"@openzeppelin/contracts/governance/extensions/GovernorVotes.sol\";\nimport \"@openzeppelin/contracts/governance/extensions/GovernorVotesQuorumFraction.sol\";\nimport \"@openzeppelin/contracts/governance/extensions/GovernorTimelockControl.sol\";\n\ncontract Governance is\n    Governor,\n    GovernorSettings,\n    GovernorCountingSimple,\n    GovernorVotes,\n    GovernorVotesQuorumFraction,\n    GovernorTimelockControl\n{\n    constructor(IVotes _token, TimelockController _timelock)\n        Governor(\"MyGovernor\")\n        GovernorSettings(\n            1, /* 1 block */\n            45818, /* 1 week */\n            0\n        )\n        GovernorVotes(_token)\n        GovernorVotesQuorumFraction(4)\n        GovernorTimelockControl(_timelock)\n    {}\n\n    // The following functions are overrides required by Solidity.\n\n    function votingDelay()\n        public\n        view\n        override(IGovernor, GovernorSettings)\n        returns (uint256)\n    {\n        return super.votingDelay();\n    }\n\n    function votingPeriod()\n        public\n        view\n        override(IGovernor, GovernorSettings)\n        returns (uint256)\n    {\n        return super.votingPeriod();\n    }\n\n    function quorum(uint256 blockNumber)\n        public\n        view\n        override(IGovernor, GovernorVotesQuorumFraction)\n        returns (uint256)\n    {\n        return super.quorum(blockNumber);\n    }\n\n    function state(uint256 proposalId)\n        public\n        view\n        override(Governor, GovernorTimelockControl)\n        returns (ProposalState)\n    {\n        return super.state(proposalId);\n    }\n\n    function propose(\n        address[] memory targets,\n        uint256[] memory values,\n        bytes[] memory calldatas,\n        string memory description\n    ) public override(Governor, IGovernor) returns (uint256) {\n        return super.propose(targets, values, calldatas, description);\n    }\n\n    function proposalThreshold()\n        public\n        view\n        override(Governor, GovernorSettings)\n        returns (uint256)\n    {\n        return super.proposalThreshold();\n    }\n\n    function _execute(\n        uint256 proposalId,\n        address[] memory targets,\n        uint256[] memory values,\n        bytes[] memory calldatas,\n        bytes32 descriptionHash\n    ) internal override(Governor, GovernorTimelockControl) {\n        super._execute(proposalId, targets, values, calldatas, descriptionHash);\n    }\n\n    function _cancel(\n        address[] memory targets,\n        uint256[] memory values,\n        bytes[] memory calldatas,\n        bytes32 descriptionHash\n    ) internal override(Governor, GovernorTimelockControl) returns (uint256) {\n        return super._cancel(targets, values, calldatas, descriptionHash);\n    }\n\n    function _executor()\n        internal\n        view\n        override(Governor, GovernorTimelockControl)\n        returns (address)\n    {\n        return super._executor();\n    }\n\n    function supportsInterface(bytes4 interfaceId)\n        public\n        view\n        override(Governor, GovernorTimelockControl)\n        returns (bool)\n    {\n        return super.supportsInterface(interfaceId);\n    }\n}\n",
  "sourcePath": "/Users/muhammadsalif/Documents/Learning/getting-started-with-dao/contracts/Governance.sol",
  "compiler": {
    "name": "solc",
    "version": "0.8.14+commit.80d49f37.Emscripten.clang"
  },
  "schemaVersion": "3.4.7",
  "updatedAt": "2022-06-13T22:18:11.311Z",
  "devdoc": {
    "errors": {
      "Empty()": [
        {
          "details": "An operation (e.g. {front}) couldn't be completed due to the queue being empty."
        }
      ]
    },
    "kind": "dev",
    "methods": {
      "COUNTING_MODE()": {
        "details": "See {IGovernor-COUNTING_MODE}."
      },
      "castVote(uint256,uint8)": {
        "details": "See {IGovernor-castVote}."
      },
      "castVoteBySig(uint256,uint8,uint8,bytes32,bytes32)": {
        "details": "See {IGovernor-castVoteBySig}."
      },
      "castVoteWithReason(uint256,uint8,string)": {
        "details": "See {IGovernor-castVoteWithReason}."
      },
      "castVoteWithReasonAndParams(uint256,uint8,string,bytes)": {
        "details": "See {IGovernor-castVoteWithReasonAndParams}."
      },
      "castVoteWithReasonAndParamsBySig(uint256,uint8,string,bytes,uint8,bytes32,bytes32)": {
        "details": "See {IGovernor-castVoteWithReasonAndParamsBySig}."
      },
      "execute(address[],uint256[],bytes[],bytes32)": {
        "details": "See {IGovernor-execute}."
      },
      "getVotes(address,uint256)": {
        "details": "See {IGovernor-getVotes}."
      },
      "getVotesWithParams(address,uint256,bytes)": {
        "details": "See {IGovernor-getVotesWithParams}."
      },
      "hasVoted(uint256,address)": {
        "details": "See {IGovernor-hasVoted}."
      },
      "hashProposal(address[],uint256[],bytes[],bytes32)": {
        "details": "See {IGovernor-hashProposal}. The proposal id is produced by hashing the RLC encoded `targets` array, the `values` array, the `calldatas` array and the descriptionHash (bytes32 which itself is the keccak256 hash of the description string). This proposal id can be produced from the proposal data which is part of the {ProposalCreated} event. It can even be computed in advance, before the proposal is submitted. Note that the chainId and the governor address are not part of the proposal id computation. Consequently, the same proposal (with same operation and same description) will have the same id if submitted on multiple governors across multiple networks. This also means that in order to execute the same operation twice (on the same governor) the proposer will have to change the description in order to avoid proposal id conflicts."
      },
      "name()": {
        "details": "See {IGovernor-name}."
      },
      "onERC1155BatchReceived(address,address,uint256[],uint256[],bytes)": {
        "details": "See {IERC1155Receiver-onERC1155BatchReceived}."
      },
      "onERC1155Received(address,address,uint256,uint256,bytes)": {
        "details": "See {IERC1155Receiver-onERC1155Received}."
      },
      "onERC721Received(address,address,uint256,bytes)": {
        "details": "See {IERC721Receiver-onERC721Received}."
      },
      "proposalDeadline(uint256)": {
        "details": "See {IGovernor-proposalDeadline}."
      },
      "proposalEta(uint256)": {
        "details": "Public accessor to check the eta of a queued proposal"
      },
      "proposalSnapshot(uint256)": {
        "details": "See {IGovernor-proposalSnapshot}."
      },
      "proposalVotes(uint256)": {
        "details": "Accessor to the internal vote counts."
      },
      "queue(address[],uint256[],bytes[],bytes32)": {
        "details": "Function to queue a proposal to the timelock."
      },
      "quorumDenominator()": {
        "details": "Returns the quorum denominator. Defaults to 100, but may be overridden."
      },
      "quorumNumerator()": {
        "details": "Returns the current quorum numerator. See {quorumDenominator}."
      },
      "relay(address,uint256,bytes)": {
        "details": "Relays a transaction or function call to an arbitrary target. In cases where the governance executor is some contract other than the governor itself, like when using a timelock, this function can be invoked in a governance proposal to recover tokens or Ether that was sent to the governor contract by mistake. Note that if the executor is simply the governor itself, use of `relay` is redundant."
      },
      "setProposalThreshold(uint256)": {
        "details": "Update the proposal threshold. This operation can only be performed through a governance proposal. Emits a {ProposalThresholdSet} event."
      },
      "setVotingDelay(uint256)": {
        "details": "Update the voting delay. This operation can only be performed through a governance proposal. Emits a {VotingDelaySet} event."
      },
      "setVotingPeriod(uint256)": {
        "details": "Update the voting period. This operation can only be performed through a governance proposal. Emits a {VotingPeriodSet} event."
      },
      "timelock()": {
        "details": "Public accessor to check the address of the timelock"
      },
      "updateQuorumNumerator(uint256)": {
        "details": "Changes the quorum numerator. Emits a {QuorumNumeratorUpdated} event. Requirements: - Must be called through a governance proposal. - New numerator must be smaller or equal to the denominator."
      },
      "updateTimelock(address)": {
        "details": "Public endpoint to update the underlying timelock instance. Restricted to the timelock itself, so updates must be proposed, scheduled, and executed through governance proposals. CAUTION: It is not recommended to change the timelock while there are other queued governance proposals."
      },
      "version()": {
        "details": "See {IGovernor-version}."
      }
    },
    "version": 1
  },
  "userdoc": {
    "kind": "user",
    "methods": {},
    "version": 1
  }
}